:10400000000003205D8300004B8300004B83000011
:104010004B8300004B8300004B8300000000000036
:104020000000000000000000000000004B830000C2
:104030004B830000000000004B830000DD83000084
:104040004B8300004B8300004B8300004B83000038
:104050004B8300004B8300004B8300004B83000028
:104060004B8300004B8300004B8300004B83000018
:104070004B8300004B8300004B8300004B83000008
:104080004B8300004B8300004B8300004B830000F8
:104090004B8300004B8300004B8300004B830000E8
:1040A0004B8300004B8300004B8300004B830000D8
:1040B0004B8300004B8300004B830000094A000043
:1040C000094A0000094A0000094A0000094A0000A4
:1040D0004B8300004B8300004B8300004B830000A8
:1040E0004B8300004B8300004B8300004B83000098
:1040F000000000004B8300004B8300004B83000056
:104100004B8300004B8300004B8300004B83000077
:104110004B8300004B8300004B8300004B83000067
:104120004B8300004B8300004B8300004B83000057
:104130004B8300004B8300004B8300004B83000047
:104140004B8300004B83000075680000816800000D
:1041500085680000896800004B8300004B830000E5
:104160004B8300004B8300004B8300004B83000017
:104170004B8300004B8300004B8300004B83000007
:104180004D830000EF830000F3830000F7830000FD
:104190004B8300004B8300004B8300004B830000E7
:1041A0004B8300004B8300004B8300004B830000D7
:1041B0004B8300004B8300004B8300004B830000C7
:1041C0004B8300004B8300004B8300004B830000B7
:1041D0004B8300004B8300004B8300004B830000A7
:1041E0004B8300004B8300004B8300004B83000097
:1041F0004B830000000000004B8300004B83000055
:104200004B8300004B8300004B8300004B83000076
:104210004B8300004B8300004B8300004B83000066
:104220004B8300004B8300004B8300004B83000056
:104230004B8300004B8300004B8300004B83000046
:104240004B8300004B8300004B8300004B83000036
:104250004B8300004B8300004B8300004B83000026
:104260004B83000010B5054C237833B9044B13B1D0
:104270000448AFF300800123237010BD40050020E7
:1042800000000000ECB0000008B5034B1BB103496F
:104290000348AFF3008008BD000000004405002083
:1042A000ECB00000704710B5044604F02FF920462A
:1042B00010BD0000F7B54A48494C4FF4E13102F017
:1042C00089FE204602F088FE0028FAD0454944487D
:1042D000454D464E424C02F095FB0A2000F0E4FFAB
:1042E000434B44485B6801936946009500F0C6FF64
:1042F0000C2004F097FA00210E2004F0D1FB0021DD
:104300000F2004F0CDFB0021102004F0C9FB002198
:10431000112004F0C5FB0021122004F0C1FB012193
:10432000002004F0BDFB0121084604F0B9FB012187
:10433000022004F0B5FB0121032004F0B1FB0121B0
:10434000042004F0ADFB0121052004F0A9FB00F0DE
:10435000BBFF40B93146204602F054FB40F6C41082
:1043600004F092F8F3E724491D48244E1C4C02F057
:1043700049FB00F09FFF022808D13146204602F099
:1043800041FB40F6C41004F07FF8F2E71C491448E2
:104390001C4C1D4E1D4F02F035FB204600F0E0FF87
:1043A00098B973683A88009569462046019301F0F0
:1043B000B7F860B116490A4802F00EFB12490848E6
:1043C00002F02AFB0F4801F03AF803B0F0BD1149A2
:1043D000034802F017FB40F6B83004F055F8DCE76C
:1043E000C80A0020C0A8000004AF0000D2A8000046
:1043F0007805002004000020D5A80000EDA80000EA
:1044000009A9000064050020800500200C000020A0
:1044100014A9000022A900002DE970430E2086B0E7
:1044200004F09EFA01900F2004F09AFA02901020F6
:1044300004F096FA0390112004F092FA04901220EE
:1044400004F08EFA0590404801F01AF848B33E484F
:1044500001F027F8002824DD431E421E622A22D8DC
:1044600006AA02EB8303384853F8141C0A2202F010
:104470001CFB354800F0E3FF334800F071FF0028D3
:104480005ED1314801F02EF83049314802F0BAFAD5
:1044900041F2883003F0F8FF06B0BDE87043FFF743
:1044A00009BF0023D9E70A28E3DD643804F0C6FD1C
:1044B000284B002204F056FF274B002280468946F5
:1044C00004F026FE0022002304460D4605F0A6F85F
:1044D000224B002278B32046294604F063FC05F005
:1044E000B1F804F0ABFD1E4B002204460D4605F06A
:1044F0008BF80028BDD02946204605F0A3F8164BBE
:10450000002206462946204604F02CFF02460B46B0
:104510004046494604F044FC0E4B002204F0F8FDEE
:104520000022002305F084F8014600B10121304645
:1045300004F0FAFA9DE72046294604F031FCCEE764
:1045400006B0BDE8708300BF6405002034A90000F8
:10455000C80A002000005940000024400000E03F4D
:104560000000184013B5002423462246214600943B
:10457000114802F0F1F9B2230093A8220123C021CF
:104580000E4802F0E9F9C8230093A8220123C021B4
:104590000B4802F0E1F90B480B4A02600822027452
:1045A0000A490B4A44604FF47A738360438202B035
:1045B000BDE8104004F0EABB5C050020780500204F
:1045C000800500206405002084AA0000A5420000A8
:1045D0000000002008B500F05BFB034B53F82030CF
:1045E000002283F8492008BDDC050020F8B5044608
:1045F00010300D4617461E4600F0C6F904F124009F
:1046000000F0C2F90020C4E90E00C4E9100084F8EB
:10461000480084F8490060722DB90A4B0A4A0B48D9
:10462000272105F037F89DF8183063719DF81C308C
:10463000E3719DF8203025602771A6712372204612
:10464000F8BD00BF54A9000065A90000B9A9000089
:104650001FB5044604AB006803E9060002F0D6FA71
:104660009DF80D30227AE17920680093002302F052
:10467000FFFB2068029A9DF80C1002F0E5FA206812
:1046800004B0BDE8104002F0B7BA000017B4837A56
:104690006C4684E8060043B19A070DD5EFF310830A
:1046A000B3FA83F35B09C37272B694E8060003B0F1
:1046B0005DF8044BFFF7CCBFDB0742BF014B82899B
:1046C000DA60F2E700280040837A53B19A0703D5F5
:1046D000C37A33B162B67047DB0742BF014B8289B0
:1046E0001A61704700280040006802F09ABA70B55D
:1046F00005460C468E18B44206D021782846FFF7AE
:10470000F3FF04F8010BF6E770BD000008B5006880
:1047100002F0AEFA0028A3BF0C235843024B00203E
:10472000A8BF185808BD00BF24AA000008B500683B
:1047300002F09EFA0028A3BF044B0C2202FB0030BB
:104740004FF0FF30A8BF406808BD00BF24AA00009A
:1047500008B5006802F08CFA0028A3BF044B0C22B5
:1047600002FB00304FF0FF30A8BF806808BD00BFDB
:1047700024AA00002DE9F04100F1100686B005469C
:10478000304600F057F9002840F0818005F12407F9
:10479000384600F04FF90446002872D12846FFF74A
:1047A000D7FFC1B2304600F043FA0221304600F094
:1047B00057FA01223749DFF8E080304600F034FA3A
:1047C000304600F065FA48F820502846FFF7AEFF63
:1047D000C1B2384600F02CFA0221384600F040FA07
:1047E000384600F055FA48F820502846FFF78EFF6B
:1047F0004FF00108014623462246CDE90344CDE9A6
:1048000001480094304600F045FAA8632846FFF7B7
:104810007DFF234602462146CDE90344CDE90184CC
:104820000094384600F036FAE863B02004F09CFFAC
:10483000286400B3303085F8488068642A6CAB6B1C
:10484000224403F1100153F8040B42F8040B8B428D
:10485000F9D11034302CF1D10023696CEA6B194482
:1048600002F1100052F8044B41F8044B8242F9D196
:104870001033802BF1D195F8483043B9384600F019
:1048800093F9304606B0BDE8F04100F08DB906B0AE
:10489000BDE8F081D5450000DC050020437A70B505
:1048A00004461BB9012242724381C36094F8483028
:1048B00013B92046FFF75EFF0F4E2079182505FB40
:1048C000006393F9081004F059F9A07905FB00631F
:1048D00093F9081004F052F9607905FB006595F929
:1048E000081004F04BF9054B204693E80600BDE89C
:1048F0007040FFF7ADBE00BF3CAB0000D405002008
:104900001FB5094B094A1A6000229A800223CDE99B
:104910000133182300930649064819231722FFF78D
:1049200065FE05B05DF804FBD405002000093D00DC
:104930008C0A002088050020074B196841B9EFF365
:104940001080064A18B972B6BFF35F8F012111704B
:104950001A6801321A607047640600206006002061
:10496000074B1A6852B11A68013A1A601B682BB9D2
:10497000044B1B7813B1BFF35F8F62B6704700BF63
:104980006406002060060020FF2202704FF4407190
:1049900000224270428081808260C2600261704762
:1049A000184A02EB011110B491F84E10CCB211F07C
:1049B00001010CD00178836802EB0112012182F819
:1049C0004E1004224270D3B15DF8044B184714F026
:1049D000020F08D00478C36802EB0412022482F8A4
:1049E0004E404170EFE7610709D50178036902EB9A
:1049F0000112042182F84E1007224270E3E75DF8AD
:104A0000044B704700A0004108B5FFF795FF074B26
:104A1000198C074B01F01F0153F8210008B1FFF773
:104A2000BFFFBDE80840FFF79BBF00BF00A00041EB
:104A3000680600202DE9FF4103781F2B04464FF044
:104A4000000040F29E80504E2070012223781F2BE0
:104A500007D8316802FA03F008420AD00133237004
:104A6000F4E701208DE003F00F03043B6344187664
:104A700044E0FFF761FF3768002F43D1434A444DBC
:104A80001369444843F4007313612B8867F34103AF
:104A90002B802B8800F5007843F001032B803946EA
:104AA00068634FF40072C5F8388004F07BFE394625
:104AB0004FF40072404604F075FE374ADFF8E4C058
:104AC00010685168354F128940F602732B8001AB94
:104AD00003C301AD1A80C02005224FF0010E35F945
:104AE000023B002BBFDB4FEA531803F01F013B448E
:104AF0000EFA01F147F8281083F80003013A12F08A
:104B0000FF02ECD122783068012101FA02F303435D
:104B10003360234B43F8224004321D4B1201985856
:104B20006FF34100985022780432120198580843DC
:104B3000985020781A69814022EA0101196122788F
:104B4000043203EB021251796FF3010151712278A3
:104B5000207904321201995860F30E21995022787D
:104B6000607904321201995860F3155199502278F6
:104B70000432120199586FF31B619950FFF7F0FE50
:104B8000002004B0BDE8F0815C0600200008004071
:104B900000A00041400100206CAA000000E100E0FC
:104BA0006806002000ED00E010B50446FFF7C4FEE3
:104BB0006378062B58B228D023781F2B28D80122DF
:104BC0009A40144B19680A4222D0196821EA02025D
:104BD0001A601B6893B9104A4FF00041C2F8801068
:104BE000BFF34F8FBFF36F8F0C4A118863F34101FE
:104BF00011800B4A116963F3492111612178094A37
:104C0000002042F82100FF222270FFF7A9FE10BD0C
:104C10000220FAE75C06002000E100E000A000416D
:104C20000008004068060020023240F82210704759
:104C300038B5037801711F2B04460D460DD8FFF7D8
:104C40007BFE2378054A04331B01D15865F30E21FE
:104C5000D150BDE83840FFF783BE38BD00A0004109
:104C600038B5037841711F2B04460D460DD8FFF768
:104C700063FE2378054A04331B01D15865F31551AF
:104C8000D150BDE83840FFF76BBE38BD00A00041F1
:104C9000007870472DE9F74F054600789DF830B051
:104CA0009DF838900F9E9DF840701F2890468A46C8
:104CB0009DF834201C4603D9002003B0BDE8F08FD6
:104CC0006B78062BF8D0AB78002B5FD0102108460C
:104CD000019204F041FD0028EED02B782E49019A74
:104CE00001EB03110B46D3F80CC0BCF1000F05D04B
:104CF000D3F80CC0614501D0DB68F4E7D86001232C
:104D00009B45AB7046D0BBF1020F08BF042301885E
:104D100041F00101018001886FF3420101800188A7
:104D20006FF3C401018001886BF3092101800188C0
:104D300062F38A210180018869F3CB210180018817
:104D400067F30C310180018866F34F310180A1B215
:104D50004180C0F804A032B1426804FB03F107B1FE
:104D6000B14011444160C0F80880B9F1000F05D08E
:104D70005C43836807B9B4401C448460EB781BB182
:104D80002A78054B03EB0213C36096E7024B03EB53
:104D90000010B4E70223BAE74001002007B5002362
:104DA00000931A461946034801F0D6FD03B05DF89A
:104DB00004FB00BFE80600204B684360002303812A
:104DC000704770B500240139234611F8010FB8B1BE
:104DD000A0F13005EEB2092E08D803EB830305EBF2
:104DE00043039BB2FF2BF0D900200DE02E28FBD10E
:104DF000032CF9D0601C14442371C4B20023E4E7EF
:104E0000032C01D1D371012070BD000007B5002330
:104E100000931A461946034801F09EFD03B05DF861
:104E200004FB00BFF00600202DE9F34106460D46C5
:104E300003F0EAFA06F10C043081022206F10801BF
:104E4000204600F0F0FC012302220DF1060120466D
:104E5000ADF8063000F0E7FC4FF4807302220DF14C
:104E600006012046ADF8063000F0DDFC00230222EA
:104E70000DF106012046ADF8063000F0D4FC022208
:104E80000DF10601204600F0CEFC02220DF10601D4
:104E9000204600F0C8FC2F462B78D3B13E4633782D
:104EA000354601360BB12E2BF9D1A5EB0708B8F129
:104EB000000F0CDD01220DF1050120468DF8058063
:104EC00000F0B1FC42463946204600F0ACFC3746C3
:104ED000E2E70DF10501012220468DF805304FF47F
:104EE000807500F0A0FC0DF1060102222046ADF80D
:104EF000065000F098FC02220DF106012046ADF8A4
:104F0000065000F090FC012002B0BDE8F0812DE9D0
:104F1000F04387B007468846164603F075FA07F156
:104F20000C040546204600F0E5FC002809DC03F0EF
:104F30006BFA401B404500F2CB80322003F0A4FA0C
:104F4000F0E77A6A7B689A4240F0C5803B8D352B4A
:104F500040F0C180204600F0E9FB0B2840F3BE8002
:104F60000C220DEB0201204600F081FCBDF80E3052
:104F70003989BDF80C201D0A45EA03252BB2914260
:104F8000ADB2ADF8065001D1002B08DB204600F091
:104F9000DBFB4FF6FC75284607B0BDE8F08340F216
:104FA0000F231D4005D0204600F0CEFB4FF6FB75C9
:104FB000F1E7BDF812301F0A47EA0327BFB22FB945
:104FC000204600F0C1FB4FF6FA75E4E7BDF810305B
:104FD0005BBAAAB29BB29A4218DA01220DF10A0119
:104FE000204600F044FC9DF80A2032B9042200213A
:104FF000204600F03CFC0135E8E70021204600F0A7
:1050000036FC9DF80A30002BE7D1EFE74FF000089F
:10501000C14601220DF10501204600F028FC9DF853
:10502000052012F0C00136D132B1204600F01FFC3D
:105030009DF80530002BECD1022202A9204600F099
:1050400016FC02220DF10A01204600F010FC042299
:105050000021204600F00BFC02220DF10601204643
:1050600000F005FCBDF80830BDF80620B3F5807FE0
:1050700019D052BA92B20021204608F1010800F07E
:10508000F6FB1FFA88F3BB42C3D3204600F05CFB5B
:105090004FF6F6757FE701220021204600F0E7FB7E
:1050A0008DF80590C8E7BDF80A506DBAADB2012D74
:1050B000DFD152BA92B2042A05D0204600F044FB58
:1050C0004FF6F77567E7311D204600F0D0FB62E729
:1050D0004FF6FF755FE74FF6FE755CE74FF6FD751F
:1050E00059E700002DE9F74306460D4691469846DC
:1050F000FFF767FE044658BB1B4B72685B689A4219
:1051000028D003F081F906F10C0700F00F0101F53A
:105110008061384600F025FB012815D1134B009320
:105120003522736801936946384600F06DFB40B143
:1051300029463046FFF778FE18B1384600F06DFB7F
:1051400058B9384600F001FB204603B0BDE8F083B3
:105150000124F9E76FF00104F6E74A46414630467C
:10516000FFF7D5FE0446ECE7F006002004AF000090
:1051700001460422012001F0F1B801460422052075
:1051800001F0ECB801460622092001F0E7B801461B
:1051900004220F2001F0E2B8F7B507460E46144688
:1051A0001D4601F09FFAE8B10F4B00930023ADF8C4
:1051B000043002AB13E906000C48FFF767FA3846E3
:1051C000FFF7E0FF301DFFF7E2FF281DFFF7D0FFDC
:1051D00008980430FFF7D1FF0448FFF775FA044B35
:1051E00062685A6003B0F0BD809FD500880500203A
:1051F000000700202DE9F0418CB01E4600238846B0
:105200000093FF230546174619461A4602A801F0E7
:10521000A3FB0C4CD8F804300494CDE905347B682A
:10522000CDE907347368CDE90934039B0B930AABCE
:10523000009306AA08AB04A92846FFF7ADFF0CB0FF
:10524000BDE8F08104AF000000B50B4B496852681F
:1052500089B0CDE90231CDE9052304930123019101
:105260008DF80730019B079304AA06AB02A9FFF74C
:10527000C1FF09B05DF804FB04AF00007FB5094B26
:105280004A680493CDE90232012301928DF8073078
:10529000019B059304AA02A9FFF7D6FF07B05DF8AA
:1052A00004FB00BF04AF0000014B1870704700BF43
:1052B0001200002008B501F079FA012802D0022876
:1052C00018BF002008BD0000044B1B78333BDBB245
:1052D000042B9ABF024AD05C00207047810700204F
:1052E00076AA000007B5002300931A461946044821
:1052F00001F032FB034803B05DF804EB01F024BB7E
:10530000F806002000070020007C07288CBF002042
:105310000120704781F0010070470846704708B5CA
:1053200003685B6C984780F00100C0B208BD418201
:10533000704707B503688DF807105B6801220DF10F
:105340000701984703B05DF804FB007C0B7C984292
:1053500004D107288CBF002001207047002070472F
:1053600010B50446007C072816D800F027FD182841
:1053700009D91C280ED1236820461B69984700389C
:1053800018BF012005E0054B23FA00F0C04300F0F0
:10539000010010BD0120FCE70020FAE70100100128
:1053A000F0B591B0044604A80E46154601F0CCFABB
:1053B00000224FF47A73CDE908230CA8184B079309
:1053C00001F0C2FA082368468DF83C3001F0BCFABF
:1053D000207C072807D800F0F1FC10B1207C00F0F9
:1053E0004BFD082323740F4B0F4F5B68039302A9F7
:1053F00004A80297FFF7E0FC41F288336A46314681
:1054000004A8FFF76FFE40B12368019ADB6903929D
:1054100002972A4602A92046984711B0F0BD00BF66
:10542000E8AA00000007002004AF000008B5007CD7
:10543000072802D800F0ACFE08BD0020FCE710B53C
:105440000446207C07280BD800F0B8FC172801D0B0
:105450001C2805D1207C00F09BFEB0F5006FF0D336
:1054600010BD38B50546007C0728144605D892B211
:1054700000F014FE10B901236B600024204638BDF3
:1054800008B5007C072802D800F0B0FD08BD002058
:10549000FCE7007C072802D812B200F009BD00200A
:1054A000704707B501220DF10701007C00F000FDF7
:1054B0000028CCBF9DF807004FF0FF3003B05DF827
:1054C00004FB10B5037C072B044602D94FF0FF30D4
:1054D00010BD03681B6998470028F7D0207C00F0B6
:1054E000B3FDF5E738B50446007C07280AD800F07C
:1054F000C3FC02F089FF0546207C00F05FFC10B978
:105500000823237438BD012002F0BEFF02F07CFFA7
:10551000628A431B9342EFD3207C00F06BFCEFE7E1
:105520007FB50446007C07280D46164607D800F0D4
:1055300045FC10B1207C00F09FFC0823237400215F
:10554000684601F015FA6A68019B9A4202D1002070
:1055500004B070BD4FF0FF3102A801F009FA6A688B
:10556000039B9A42F3D00021212000F001FB072881
:105570002074ECD8291D324600F058FC02F044FF9C
:105580000546207C00F01AFC172813D01C2811D0E7
:105590000028DCD002F038FF638A401B984203D811
:1055A000012002F071FFECE7207C00F023FC0823CF
:1055B0002374CCE70120CBE710B40C461146064A11
:1055C000127804EB022404EB00201A465DF8044B29
:1055D00080B200F073BF00BF8007002037B5037CA6
:1055E000072B05464FF0000418D80E4B0093ADF87A
:1055F00004406C4694E806000B48FFF747F8022386
:105600002246287C0421FFF7D7FF9DF800309DF843
:105610000140054844EA0324FFF756F8204603B04A
:1056200030BD00BF809FD5008805002073B50B7C7E
:10563000072B04460E4605D9002101F099F92046B2
:1056400002B070BD0C4B00930023ADF804306D46E2
:1056500095E806000948FFF719F804232A460C21AB
:10566000307CFFF7A9FF0548FFF72EF829462046B2
:1056700001F084F9E3E700BF809FD5008805002092
:1056800037B5037C072B05464FF0000418D80E4BA6
:105690000093ADF804406C4694E806000B48FEF712
:1056A000F5FF02232246287C1021FFF785FF9DF895
:1056B00000309DF80140054844EA0324FFF704F850
:1056C000204603B030BD00BF809FD5008805002074
:1056D00007B5002300931A461946034801F03CF928
:1056E00003B05DF804FB00BF0807002000207047EE
:1056F00007B5002300931A461946034801F02CF918
:1057000003B05DF804FB00BF1007002003689B6B2B
:1057100018470000024A02608A694260704700BF71
:1057200004AF0000808B7047008A7047408C704740
:1057300007B503688DF807105B6801220DF10701BA
:10574000984703B05DF804FB704710B5044690F825
:105750002000072804D800F04DFB082384F82030EF
:1057600010BD38B5044690F8200007280D4601D832
:1057700000F040FB2946022000F0FAF9072884F8DF
:1057800020004FF000009EBF60842582012038BDBC
:10579000F0B591B0044604A80E46154601F0D4F8C1
:1057A00000224FF47A73CDE908230CA8134B07931A
:1057B00001F0CAF8082368468DF83C3001F0C4F8BF
:1057C0000F4B104F5B68039302A904A80297FFF7E1
:1057D000F3FA41F288336A46314604A8FFF782FCA7
:1057E000012808D12368019A9B6A039202972A46EE
:1057F00002A92046984711B0F0BD00BFE8AA0000FA
:105800000007002004AF000008B50023C383043163
:1058100090F8200000F00CFD08BD08B590F82000BD
:1058200000F032FD08BD10B593B204460A46C18BA4
:1058300090F8200000F0D0FCE38B0344E38310BD1C
:10584000438C13B504461BB94FF0FF3002B010BDB6
:1058500090F8200001220DF1070100F029FB00283B
:10586000F2DD638C9DF80700013B6384EEE7438C17
:1058700010B5044613B94FF0FF3010BD934294BFEA
:105880001AB212B290F8200000F012FB0028F2DDEC
:10589000638C1B1A6384F0E708B590F82030072B5F
:1058A00005D8428C1AB1184600F0CEFB08BD4FF067
:1058B000FF30FBE773B5044690F8200007280E463A
:1058C000154601D800F096FA094B00932A467368F2
:1058D00001936946822000F0CDF9072884F8200062
:1058E0004FF000009EBF60840120258202B070BD91
:1058F00004AF000013B50446628C2AB1236800216E
:105900009B6B20469847F7E794F8200000F06EFB69
:10591000E0B194F820000822694600F0C9FA002896
:1059200014DD694604F1140001F030F89DF80420FC
:105930009DF805309DF8060003EB0223A3839DF834
:10594000073003EB00239BB26384184602B010BDFE
:1059500007B5002300931A461946034800F0FCFFE0
:1059600003B05DF804FB00BF2807002007B5084B13
:105970001B7801EB032101EB002001220DF107014F
:1059800080B200F09BFD9DF8070003B05DF804FBBA
:105990008007002007B5094B8DF807201B7801EB25
:1059A000032101EB002001220DF1070180B200F07C
:1059B000D5FCC0B203B05DF804FB00BF8007002037
:1059C00010B40C461146064A127804EB022404EB8C
:1059D00000201A465DF8044B80B200F0BFBC00BF47
:1059E000800700202DE9F3470C469046242101AAA8
:1059F0001E4602230546FFF7DFFD9DF804209DF8B3
:105A0000051041EA0221204A13782144332BC1F3C7
:105A10000A048FB20CBF05F1080105F11001C9029B
:105A200089B22144372B914688B22AD0A319B3F505
:105A3000006F26DDC4F5006A1FFA8AFA5246414615
:105A400000F08CFC99F80030332B0CBF05F10800F6
:105A500005F11000A6F50062C002224480B292B2A5
:105A600008EB0A013E4400F079FC76BA022301AA51
:105A700024212846ADF80460FFF7A2FF02B0BDE87C
:105A8000F08732464146EDE78107002008B5032143
:105A9000FFF76CFF08BD07B549BAADF80410022343
:105AA00001AA0421FFF78CFF03B05DF804FB08B5E1
:105AB0000A4604230C21FFF783FF08BD07B549BA46
:105AC000ADF80410022301AA1021FFF779FF03B0FB
:105AD0005DF804FB07B5022301AA2021FFF76CFD46
:105AE0009DF804009DF8053043EA002003B05DF8FE
:105AF00004FB000038B50446FFF7ECFF03462046E0
:105B00001D46FFF7E7FF85420346F8D1024A02EB44
:105B1000C404A08038BD00BF3807002007B50223A9
:105B200001AA2621FFF748FD9DF804009DF80530E5
:105B300043EA002003B05DF804FB07B5022301AA85
:105B40002821FFF739FD9DF804009DF8053043EA50
:105B5000002003B05DF804FB044B1B78332B0CBF13
:105B60000C301830C00280B2704700BF810700209F
:105B70002DE9F347394B1B7807460E467BB3332B91
:105B80004FF00005364B0093ADF80450E94699E814
:105B90000600344814BF4FF008084FF00408FEF721
:105BA00075FDCA46ECB22046FFF770FF0AF8010BFC
:105BB000D8B10135EBB29845F4D800244FF03452F7
:105BC00019F8013B1D2B03D822FA03F3DB0708D495
:105BD0000134E4B2A045F3D12248FEF775FD082454
:105BE0002CE01021204600F023FE1F4B0025FA2058
:105BF00023F8145002F03AFC3A4629462046FFF7B3
:105C0000C9FEFF2202212046FFF7C4FED6B131466D
:105C1000164D2046FFF73FFF00260121204600F0E9
:105C200007FE25F834602046FFF787FF05EBC40325
:105C300058809E710B489E80FEF746FD204602B0BC
:105C4000BDE8F0870A4B1A88013292B2B2F5404F94
:105C500038BF4FF440421A801988D9E781070020E5
:105C6000809FD500880500201807002038070020F5
:105C7000100000202DE9F04F494B1B7885B081467C
:105C80000F4690467BB3332B4FF00006454B0293F3
:105C9000ADF80C6002AD95E80600434814BF4FF024
:105CA000080A4FF0040AFEF7F1FCAB46F4B22046B6
:105CB000FFF7ECFE0BF8010BD8B10136F3B29A45B1
:105CC000F4D800244FF0345215F8013B1D2B03D8B3
:105CD00022FA03F3DB0708D40134E4B2A245F3D17E
:105CE0003148FEF7F1FC08244AE01021204600F07C
:105CF0009FFD2E4B0025FA2023F8145002F0B6FB2E
:105D00004A4629462046FFF745FEFF22022120464B
:105D1000FFF740FEB8F1000F36D041462046FFF7AE
:105D2000BAFE234B234D18687B79009003F07F0364
:105D30008DF80330BB798DF80430391DFB798DF86F
:105D400005302046FFF7B3FE41462046FFF7B6FE7A
:105D5000062319466A462046FFF732FE0026012137
:105D6000204600F065FD25F834602046FFF7E5FE8B
:105D700005EBC40358809E710B489E80FEF7A4FC7F
:105D8000204605B0BDE8F08F0B4B1A88013292B265
:105D9000B2F5404F38BF4FF440421A801988BDE732
:105DA00081070020809FD50088050020180700206B
:105DB00034AB0000380700201000002037B50B4B33
:105DC00000930B4D0023ADF8043002AB13E906003D
:105DD00004462846FEF75AFC2046FFF757FE0446C5
:105DE0002846FEF771FC204603B030BD809FD500E9
:105DF0008805002037B50B4B00930B4D0023ADF801
:105E0000043002AB13E9060004462846FEF73EFCC8
:105E10002046102100F00CFD284603B0BDE83040BC
:105E2000FEF752BC809FD50088050020F7B5104BC7
:105E30000093104F0023ADF8043002AB04460E4629
:105E40001546384613E90600FEF720FC3146204689
:105E5000FFF72DFE29462046FFF730FE204604219D
:105E600000F0E6FC384603B0BDE8F040FEF72CBC7D
:105E7000809FD5008805002037B50B4B00930B4D54
:105E80000023ADF8043002AB13E9060004462846AF
:105E9000FEF7FCFB2046082100F0CAFC284603B0B0
:105EA000BDE83040FEF710BC809FD500880500207B
:105EB0002DE9F04F85B0494B494E0293002336F847
:105EC0003040ADF80C300DF10808174605468B46FA
:105ED000444898E80600FEF7D9FBA7420EDD2846A5
:105EE000FFF71CFE04462846FFF718FEA042F9D132
:105EF00006EBC5039C79041B26F835408CB928466F
:105F0000FFF7C4FD142805D020B1B0F11C0418BF60
:105F10004FF0FF343348FEF7D7FB204605B0BDE80D
:105F2000F08FEB00BC42019306EBC503A8BF3C46D3
:105F3000B3F802A0A7B2BBF1000F24D02846FFF7A8
:105F40000BFE294A1278CAF30A094844372A80B25C
:105F50003FD019FA84F2B2F5006F3ADDC9F500615D
:105F60008AB25946019200F0A9FA019A28460BEB31
:105F700002010191FFF7F0FDA9F500623A44019991
:105F800092B200F09BFAEB00F21836F835309179B6
:105F9000BA44DB1B0F44BFB21FFA8AFA9BB2F92F37
:105FA00026F83530A2F802A000D8ABB9EB001E44A9
:105FB0000023B3719AFA9AFA02234246282128460E
:105FC000ADF808A0FFF7FCFC4021284600F030FCAB
:105FD000A0E73A465946D4E797719BE7809FD500E2
:105FE000380700208805002081070020F7B5134EF0
:105FF000054636F83000F0B9114B0093ADF80400B7
:1060000002AB13E906000F48FEF740FB2846FFF7F6
:1060100085FD04462846FFF781FD2746B842044621
:10602000F8D10848FEF750FB06EBC5039879241A0F
:10603000A0B226F8350003B0F0BD00BF380700203D
:10604000809FD5008805002073B5114B0093114E39
:106050000023ADF804306D4695E80600044630464E
:10606000FEF714FB2046FFF777FD0B4B03EBC40450
:1060700001226388C3F30A031844294680B200F062
:106080001DFA3046FEF720FB9DF8000002B070BDFF
:10609000809FD50088050020380700202DE9F04FAB
:1060A000B2F5006F28BF4FF40062DFF8E090DFF830
:1060B000D8A085B004460F4615464FF0000BCDF82A
:1060C0000890ADF80CB002AE96E806005046FEF718
:1060D000DDFA2046FFF70EFD80462046FFF7D6FC8E
:1060E00001905046FEF7F0FA019B172B01D01C2BB4
:1060F00030D102F0E5F9A845E1D34FF00008CDF822
:106100000890ADF80C8096E806001F48DFF87890FC
:10611000DFF878A0FEF7BAFA2B463A464146204609
:10612000FFF760FC2021204600F082FB0221204680
:10613000FFF71CFC10F010071DD12046FFF7A6FC4E
:10614000804648B91048FEF7BFFA4546284605B0D4
:10615000BDE8F08F0025D0E74846FEF7B5FA02F01B
:10616000AFF9CDF808A0ADF80C7096E806004846E7
:10617000FEF78CFADAE7102202212046FFF70AFC2C
:106180000148FEF7A1FAE1E788050020809FD500CD
:1061900037B50F4B00930023ADF8043002AB13E981
:1061A000060005460B48FEF771FA2846FFF7A2FCE9
:1061B00004462846FFF76AFC05460648FEF784FABF
:1061C000172D02D01C2D18BF0024204603B030BD6F
:1061D000809FD500880500202DE9F3411C46124B15
:1061E0000093DFF848800023ADF8043002AB054689
:1061F0000E461746404613E90600FEF747FA2846C2
:10620000FFF778FCA042034628BF23469CB22346F2
:106210003A4631462846FFF7E5FB4046FEF754FA7A
:10622000204602B0BDE8F081809FD500880500209F
:1062300073B50B7806460D4614462BB94B781BB93F
:106240008B780BB9C878B8B1C4B10D4B009300235B
:10625000ADF8043002AB13E906000A48FEF716FA5F
:1062600029463046FFF723FC21463046FFF726FC3F
:106270000448FEF729FA012002B070BD2046FBE772
:10628000809FD500880500202DE9F7430023224C8C
:10629000ADF8043000946E4696E8060005461F48A7
:1062A000DFF87880FEF7F2F92021284600F0C0FAE6
:1062B000A14602212846FFF759FB10F0100421D116
:1062C00002212846FFF752FB10F008070BD01822D6
:1062D00002212846FFF75EFB1048FEF7F5F920463D
:1062E00003B0BDE8F0834046FEF7EEF902F0E8F8AF
:1062F000CDF80090ADF8047096E806004046FEF731
:10630000C5F9D6E7102202212846FFF743FB0348D0
:10631000FEF7DAF90120E3E7809FD5008805002029
:1063200007B5002300931A461946034800F014FBF2
:1063300003B05DF804FB00BF30070020024B0021D2
:10634000187802F0F1BB00BF12000020024B0121BF
:10635000187802F0E9BB00BF120000202DE9F341DC
:106360004B4B1B78332B04460D4616461FD100EBD2
:106370000208484F4D1E1FFA88F8A04572D0FFF75B
:10638000DDFFF0213846FEF7AFF9210A3846FEF767
:10639000ABF9E1B23846FEF7A7F9013415F8011F51
:1063A0003846A4B2FEF7A0F9FFF7D0FFE5E7342B9B
:1063B000C7B21AD1FFF7C2FF330A64BA63F07F0392
:1063C0003448ADF80040042269468DF802308DF85B
:1063D0000360FEF78CF92F4CAF19AF4240D015F88F
:1063E000011B2046FEF780F9F7E7FFF7A7FFFF2C18
:1063F00008D800238DF800308DF8017004238DF843
:1064000002300DE0230417D4E41024F01F0400230D
:1064100044F00C048DF800308DF801708DF80240C6
:10642000052E23D80023B34215DA02AA1A44E95CE8
:1064300002F8051C0133F6E744F38713B4F5404F27
:1064400023F01F0364BAADF8004034BF43F01403D7
:1064500043F01C03D3E70F48F21C6946FEF747F9E7
:10646000FFF774FF304602B0BDE8F0816946094885
:10647000084F0322FEF73BF9711E6C1E15FA81F5D9
:1064800014F8011F3846FEF72FF9AC42F8D1E7E7C0
:10649000810700208805002007B501228DF807102C
:1064A0000DF10701FFF75AFFC0B203B05DF804FB1E
:1064B00008B501460020FFF7EFFF08BD2DE9F341C5
:1064C0003B4B1B78332B04460E46154620D100EB80
:1064D0000208384F4E1E1FFA88F8A04538D0FFF743
:1064E0002DFF0F213846FEF7FFF8210A3846FEF748
:1064F000FBF8E1B23846FEF7F7F800213846FEF720
:10650000F3F8013406F8010FA4B2FFF71FFFE4E728
:10651000342BC7B220D1FFF711FF64BAC5F30623AD
:106520000422ADF804408DF806308DF807500DEBCD
:1065300002012048FEF7DBF82A460021304603F02E
:1065400031F91C482A463146FEF7D1F8FFF7FEFE26
:10655000284602B0BDE8F081FFF7F0FEFF2C07D817
:1065600000238DF804308DF805708DF806300DE0AD
:1065700023040ED4E41024F01F04002344F0080484
:106580008DF804308DF805708DF80640032201A9BE
:10659000CFE744F38713B4F5404F23F01F0364BAE9
:1065A000ADF8044034BF43F0100343F01803DCE7B8
:1065B000810700208805002007B501220DF10701A1
:1065C000FFF77CFF9DF8070003B05DF804FB08B5FA
:1065D0000020FFF7F1FF08BD10B58020FFF768FF2E
:1065E0001424FFF7F4FF40B1013C0120A4B201F0F4
:1065F0004BFF002CF5D1204610BD0120FCE7000028
:1066000008B50F4B33221A70FFF7E6FF08B90020D8
:1066100008BD1020FFF74CFFFFF7D9FF1028F6D177
:106620001220FFF745FFFFF7D2FF1228EFD100201D
:10663000FFF73EFFFFF7CBFFB0FA80F04009E7E736
:106640008107002008B5124B34221A70FFF7C4FFEF
:1066500008B9002008BD0820FFF72AFFFFF7B7FFA1
:106660000828F6D11020FFF723FFFFF7B0FF10280E
:10667000EFD10020FFF71CFFFFF7A9FF0028E8D1AA
:106680001F20FFF799FFC31E58425841E2E700BFA1
:106690008107002008B5124B37221A70FFF79CFFC4
:1066A00008B9002008BD0820FFF702FFFFF78FFFA1
:1066B0000828F6D11020FFF7FBFEFFF788FF10280F
:1066C000EFD10020FFF7F4FEFFF781FF0028E8D1AB
:1066D0003920FFF771FF031F58425841E2E700BF1E
:1066E0008107002073B52B4E3478002C50D14FF425
:1066F0000C7001F0C9FE2848FEF7D0F8274B0121A5
:10670000187802F0CDF9FFF721FE254B0093ADF884
:10671000044002AB13E906001F48FDF7B7FFFFF77F
:1067200091FFB0B11F4B40221A70E5B202221E2128
:106730002846FFF72FF9013402221F212846FFF7D0
:1067400029F9082CF1D114480124FDF7BDFF34705C
:106750001BE0FFF79FFF18B1124B10221A70F2E7EF
:10676000FFF74EFF044658B10E4B042255211B2063
:106770001A70FFF791FE55211A20FFF78DFEE2E710
:10678000094B18700448FDF79FFF204602B070BD0A
:106790000124FAE78207002088050020120000206B
:1067A000809FD500800700208107002013B5FFF7E8
:1067B00099FF38B11B4B1B78342B4FF0000003D0EE
:1067C000372B18D002B010BD174B0093ADF8040062
:1067D00002AB13E906001548FDF758FF3520FFF717
:1067E000EBFE04461148FDF76FFF14F0200F0CBFBD
:1067F00002200120E6E70C4B0093ADF8040002AB49
:1068000013E906000948FDF741FF2E20FFF7D4FEEB
:1068100004460648FDF758FF04F00100C0F10200ED
:10682000C0B2CFE781070020809FD50088050020F7
:1068300038B50A4601210446FFF7ACF8054D24029D
:106840002B7804EB0323013398B2FFF7B5FE002841
:10685000F6D138BD8007002007B5002300931A4603
:106860001946034800F078F803B05DF804FB00BF58
:1068700078070020014801F073BC00BF84070020A6
:10688000FFF7F8BFFFF7F6BFFFF7F4BF13B51249E4
:106890001248134C00F01AF91249134800F016F987
:1068A0001249134800F012F91249134800F00EF98A
:1068B0004FF08641114800F009F91149204600F0D7
:1068C00005F901230022CDE9003221460D4801F0EF
:1068D000E5FB02B010BD00BF00300040800A002080
:1068E000BC0A0020003400408C0A00200020014136
:1068F000980A002000400141A40A0020B00A0020AC
:1069000000040043840700202DE9F84305460C46A7
:1069100000F1040800F10709002718F8011B0A22FA
:10692000204600F0D1F82E210646204600F058F807
:10693000C84530440744F0D1E9790A22204600F0E6
:10694000C3F83844BDE8F883024A0260002242607E
:10695000704700BF04AF000030B58371034D9DF850
:106960000C30056001714271C37130BD04AF00008D
:10697000014AC0E90021704704AF0000024A0260EA
:106980000A684260704700BF04AF00000B684360B4
:106990007047F8B505460E4617460024BC4207D09E
:1069A0002B68315D1B682846984708B10134F5E72C
:1069B0002046F8BD13B50446084659B1019103F0CD
:1069C000E7FA236801995B680246204602B0BDE8F9
:1069D0001040184702B010BD08B5FFF7EBFF08BD27
:1069E00003681B6818470A680B4612680146184678
:1069F0001047000008B50249FFF7DCFF08BD00BFE3
:106A000008AF000038B50546FFF7D4FF0446284616
:106A1000FFF7F0FF204438BD38B50546FFF7E3FF28
:106A200004462846FFF7E6FF204438BDF0B58BB09A
:106A300000238DF82430012A98BF0A2209ACB1FB4B
:106A4000F2F602FB1615EBB2092D0F4694BF303358
:106A50003733DBB2BA4204F8013D3146EFD9214663
:106A6000FFF7A8FF0BB0F0BD2DE9F04107460E4639
:106A700014462AB90368BDE8F0411B68C9B218473B
:106A80000A2A0DD100290CDA2D21FFF7A9FF224691
:106A9000054671423846FFF7C9FF2844BDE8F0813A
:106AA000D2B2BDE8F041FFF7C1BFFFF7DDBF10B4C0
:106AB0002AB902685DF8044B1268C9B210475DF844
:106AC000044BD2B2FFF7B2BFFFF7F1BF0122016062
:106AD0000271704770B506683568022B45EA82720C
:106AE00014BF4FF08074002444EA0204346000684C
:106AF0009DF81040426801F0070141EA841114BF7B
:106B00005B0300230A431343436070BD10B5036861
:106B100012051C6802F440120904224301F44031BA
:106B20000A431A600268536843F44033536010BD4F
:106B30000268136843F00103136003681A68D10701
:106B4000FCD4DA69D207F9D470470268136843F0BD
:106B5000020313600268D3699B07FCD47047036883
:106B60001A7E12F0010F03D11A7E12F0020FFAE71B
:106B70007047036800225A8370470368187EC0F389
:106B8000800070470368187EC00970470268137E52
:106B900043F08003137670470368588BC0F34000BE
:106BA00070470268538B43F00203538370470368B6
:106BB000187E00F0010070470368986AC0B2704701
:106BC00003681A7ED207FCD59962012070470368DA
:106BD00001229A757047036801221A75704702688E
:106BE000136843F00103136003681A68D107FCD4EB
:106BF000DA69D207F9D470470268136843F00203D8
:106C000013600268D3699B07FCD470470368DA6994
:106C1000C2F340019207FAD41A6861F341021A6084
:106C200070470368996203681A7E5207FCD5986A18
:106C3000C0B2704780684900B0FBF1F080B208B183
:106C4000013880B2C0B2704770B50B460568C3F317
:106C5000400603F0010329681B0743EA46730B4310
:106C60002B6011460368FFF7E5FF187370BD000045
:106C70000368124A934213D002F58062934211D006
:106C80000F4A934210D002F5005293420ED0B3F156
:106C9000864F0DD00B4A93420CD1052040B270476D
:106CA0000020FBE70120F9E70220F7E70320F5E7E2
:106CB0000420F3E74FF0FF30704700BF0030004082
:106CC0000020014100040043052A30B51FD0244CA8
:106CD00009010C44E3B12179224C203154F82150B0
:106CE0006FF3861544F8215054F821506D06FBD4FB
:106CF00003B102711B4C6AB9402244F821200BB148
:106D0000194B8360174A52F821305B06FBD530BD22
:106D10006179E1E7012A06D1412244F82120002BC4
:106D2000F0D0124BEDE7022A06D1422244F821208E
:106D3000002BE7D00E4BE4E7032A07D1432244F8A7
:106D40002120002BDED04FF40043DAE7042AD9D10A
:106D5000442244F82120002BD4D0064BD1E700BFB9
:106D60000CAF0000001C0040000E2707006CDC0286
:106D700000E1F505001BB7002DE9F3410546FFF7DB
:106D800077FF011E3DDB1022062312FB01331E4A52
:106D90001E4EDFF87CC01A440424C020012732F9BB
:106DA000028BB8F1000F1FFA88F324DB4FEA581E5C
:106DB0004FEA8E0E0EF1604E0EF5614E03F01F038A
:106DC000E04407FA03F3CEF8803188F80003CEF8E8
:106DD0000030013C14F0FF04E1D12A790191012334
:106DE0002846FFF771FF2A790199234602B0BDE8D2
:106DF000F041FFF769BF03F00F03043B33441876FB
:106E0000E7E702B0BDE8F0810CAF000000ED00E064
:106E100000E100E0F8B504460F4616461D46FFF7B0
:106E2000ABFF2046FFF784FEBB007103226803F02E
:106E30001C0389B20B43136023688422012F9A75C7
:106E400013D1012E0CBF10230823084A6B43B2FB59
:106E5000F3F32268918963F34F319181226891891C
:106E6000C3F3CC0363F30C019181F8BD0060E3161A
:106E7000F8B505460C4617461E46FFF7B0FEFFF76D
:106E80007BFF24049DF81820296804F4403444EA68
:106E900082743A0502F44012224342F00C020A6066
:106EA0002B6806F0070646F400365E602A68D36950
:106EB0005B07FCD4F8BD3F20704707B503688DF829
:106EC00007105B6801220DF10701984703B05DF8D8
:106ED00004FB0069022100F00DBC0069032100F0F1
:106EE0001DBC000010B51346074AD27904461AB9F2
:106EF00001236360002010BD0A460069032100F0F1
:106F000005FD0028F4D0F6E71800002010B5054C68
:106F10002368591C04D103685B69984703462060C5
:106F2000184610BD64000020064A1368591C03D19E
:106F30000069022100F0DABC4FF0FF311160184601
:106F4000704700BF640000200378034902330370D8
:106F50004222024800F07CBD20000020E40A00200C
:106F600010B502784378A12A08D1212B1BD11649EC
:106F70001648072200F06CFD012010BD212A12D115
:106F8000202B12D110491148072200F007FC0E4BAC
:106F90001A68B2F5966F0ED1D87910F001040AD1B3
:106FA000FA2001F045FE0020E7E7222B06D1064B30
:106FB0008278DA71EBE701F041FEF4E7232BF2D19E
:106FC000034B42881A60EEE718000020E40A002014
:106FD000140000207047000010B501F015FAB0F55C
:106FE000FA7F09D3054BDC790A20003C18BF012445
:106FF00001F04AFA204610BD0024FBE718000020EB
:10700000054B00224FF47A71C3E90121034919604D
:10701000034919611A767047C80A002074AF00004E
:10702000E40A0020704710B501F1080400F00F02D7
:10703000D3B2092ACCBF3733303304F8013DA14223
:107040004FEA1010F2D110BD10B50446806902F06D
:1070500093FBA06A02F090FB204610BD10B50446D9
:10706000FFF7F2FF204601F051FA204610BD000064
:107070000329F0B407D12C4B53F82000F8B1036872
:10708000F0BCDB68184782291BD12849284AC3B2C3
:1070900001EB43150324AE6964F31E76AE6102EB87
:1070A00080100A6868610833580102EB43131979AC
:1070B00041F080011971135C64F306131354F0BCA2
:1070C00070470029FBD1194DC2B205EB42130327CB
:1070D0009C6867F31E749C60164C083204EB8010A9
:1070E000586054012868055D012666F302050555C0
:1070F000D3F818C00E4D67F31E7CC3F818C05D614D
:10710000055D66F30615055500EB421298684024AC
:1071100064F39B309860986861F30D009860537930
:1071200023435371CBE700BFE80A00209C0F0020E7
:10713000100B0020D00C0020EFF31082026001221F
:10714000426072B67047036813B962B6BFF36F8FBF
:10715000704737B5056904466846A5B9FFF7ECFFE7
:10716000019B013B03D394F82450EDB2F9E7684644
:107170000193FFF7E8FF15B9002003B030BD206A86
:10718000E369C01AF9E7FFF7D7FF019B0025013B30
:1071900003D394F83450EDB2F9E768460193FFF752
:1071A000D2FF002DE8D0206BE36AEAE74368017A5A
:1071B0001A6830B502EB411403EB411194F8095100
:1071C00045F0010584F809518C68C56865F39B3466
:1071D0008C60017A03EB411399686FF30D0199609C
:1071E000037A083302EB43131A7942F040021A7112
:1071F00030BDF7B5056904460E4617466846002DB2
:1072000041D1FFF799FF019B013B5A1C0CD094F828
:107210002420591E32B968460193FFF794FF28468F
:1072200003B0F0BD0B46F0E768460193FFF78BFF14
:10723000AF42E36909D0226A9A4206D9A269591C71
:10724000E161D35C73550135F2E7226A9A42E6D1D7
:1072500000260123E66123616846FFF76DFF37468C
:10726000019B013B581CD6D084F8246094F835204B
:10727000591E32B184F8357020460193FFF796FF0E
:10728000EEE70B46EEE7FFF757FF019B013B591C6A
:1072900008D094F83420591E02F0FF05002ABAD015
:1072A0000B46F4E768460193FFF74DFF0025BD420A
:1072B000E36A02D0226B9A421AD8226B9A42AED16C
:1072C0000026E66226616846FFF736FF3746019BD7
:1072D000013B5A1C9FD084F8346094F83520591E25
:1072E0006AB184F8357020460193FFF75FFFEEE73F
:1072F000A26A591CE162D35C73550135D7E70B468E
:10730000E7E7436837B5027A1968044602F10800D6
:1073100001EB4011C879C00724D55201012513445F
:10732000CD719A686169C2F30D0209BB2262226ABB
:10733000002A3CD0A26A656168465A60FFF7FCFEED
:10734000019B013B591C2ED084F8245094F8342022
:10735000591E02F0FF003AB184F835506846019397
:10736000FFF7F1FE03B030BD84F835000B46E9E7C6
:107370002263226BDAB100226261A2695A60684618
:10738000FFF7DAFE019B013B5A1C0CD084F8345005
:1073900094F82420591E02F0FF00002ADCD184F862
:1073A00035000B46F0E768460193FFF7CCFE204618
:1073B000FFF7FCFED6E713B500230C460DF10700DE
:1073C0008DF80730FFF7C0FD23681844206001F0F6
:1073D00091FC0DF1070101F05DFC23681844206069
:1073E0009DF8070002B010BD03290BD10C4B1B68A0
:1073F00093F8642142F0800283F86421022283F82A
:107400006721704701290AD1054B1B6893F8242195
:1074100042F0800283F82421022283F8272170475A
:107420009C0F00203F4B70B50121002405461A2017
:107430001C7001F035FB01211A2001F075FB3A4B5D
:107440003A4E1C700121192001F02AFB012119205C
:1074500001F06AFB364B37489A6942F001029A61A3
:107460001A6942F480621A61334B93F8582042F053
:10747000010283F8582093F83C2002F0F00283F8D0
:107480003C2093F83C2042F0070283F83C2093F81C
:10749000592042F0010283F8592093F83C2002F071
:1074A0000F0283F83C2093F83C2042F0700283F8EE
:1074B0003C20224B4122C3F8A82000F09FFF304619
:1074C00001F02AFC304601F03FFC33681A7864F37F
:1074D000C7121A701A7842F004021A701A8964F3FB
:1074E00083021A81164A4FF4803182F8504382F8A1
:1074F000514382F8524382F8534391604FF4003174
:1075000091604FF4802191604FF4002191601A78CE
:1075100042F002021A709A789207FCD401232B7071
:1075200070BD00BF050B0020040B00209C0F002045
:1075300000080040057F000000800041001C004062
:1075400000E100E0007880B1084B1B681A896FF3F6
:1075500000021A811A8B42F008021A831A8B42F039
:1075600004021A83024B00221A6070479C0F00200D
:10757000940F00200E4B9A696FF30D029A611B68FD
:10758000022283F8072193F8052142F0800283F854
:10759000052193F807219207FBD54FF082439A7A91
:1075A00061F306029A729A7A42F080029A727047E8
:1075B0009C0F00200B7907B56BB90846FFF7D0FC8C
:1075C00018B1012003B05DF804FB0A4B9A6960F31F
:1075D0000D029A61F5E7019101F08CFB019901F030
:1075E0007AFB0028EDD1034B9A6960F30D029A6192
:1075F000E8E700BF9C0F0020832A2DE9F8430D46E1
:10760000114616D12F4A3049EBB202EB4310032644
:10761000846966F31E748461083301EB85155B0190
:1076200011684561CA5C042060F30612CA54BDE8C3
:10763000F883022A41D1254E56F8250010B103687F
:107640005B699847382000F05FFFDFF87880204BB7
:1076500003604FF4807900230362044680F82430ED
:10766000C0E903930363436180F83430C361C362AC
:1076700080F83530C0E90185484602F075F80746C4
:10768000A061484602F070F8EBB208EB4311A0622B
:107690008A684FF0030C6CF31E728A600833D8F8C6
:1076A00000005B01C25C6CF30202C2544F602046D2
:1076B000FFF77CFD46F82540B9E72846BDE8F843CA
:1076C000FFF7D6BC9C0F0020100B0020E80A00201A
:1076D00098AF000070B5064D0646012455F82420E9
:1076E0002AB121463046FFF787FF0134F6E770BD27
:1076F00068000020074B53F8210010B103689B6815
:107700001847054BC9B203EB41118868C0F30D005F
:10771000704700BFE80A00209C0F002010B50C46FF
:10772000FFF7E8FF58B1064BE4B21B68083403EBDF
:107730004414637943F0800363710223E37110BD45
:107740009C0F0020134B30B5CAB203EB8111124BD2
:1077500003EB421008244160816864F39B3181602F
:1077600081686FF30D01816018685501224400EBB8
:1077700042110C7944F040040C718C796406FCD5FC
:1077800000EB4212D179C907FCD52B449868C0B2EE
:1077900030BD00BFD00C00209C0F002038B50D4B31
:1077A00015461A6892F8043143F040030C4682F8FB
:1077B00004310021FFF7C6FF074BA84228BF284627
:1077C00021462544A94204D013F8012B01F8012BCE
:1077D000F8E738BD9C0F0020D00C002010B50C4BF2
:1077E000C9B24C0103EB411123448A68C2F30D0274
:1077F0003F2A89BF88688A68403A62F30D0096BFC5
:107800006FF30D0288608A609868C0B210BD00BF37
:107810009C0F00202DE9F0471C462F4B1B680746A4
:107820000E469146002B54D02C4D2A7802F0FF01D1
:1078300012B9192001F078F964232B70284B53F802
:10784000260030B10368224649465B68BDE8F04730
:10785000184731463846FFF74DFF844204D9314678
:107860003846FFF747FF0446DFF87CA0314638462C
:10787000FFF7B4FFDAF800301A49F5B203EB45130D
:1078800001EB861193F8082142F0010283F80821E8
:10789000484622464FEA451801F076FFB4B131461A
:1078A0003846FFF727FF88B9DAF80030083503EBD0
:1078B000451543442A7942F040022A710122EA71B7
:1078C00093F8092142F0010283F809212046BDE81E
:1078D000F0874FF0FF34F9E7940F0020040B0020ED
:1078E000E80A0020D00C00209C0F002007B50123DF
:1078F0000DF10702FFF78EFF01280CBF9DF807006E
:107900004FF0FF3003B05DF804FB00002DE9F74FA6
:107910001D46374B1B680F469146002B41D0B5F5ED
:10792000804F3ED8334C227802F0FF0112B91A2062
:1079300001F0FAF864235FFA87FB23700BF1080A61
:107940002D4B4FEA4A1203EB87134FF000080092C9
:107950004DB32A4C009A26682949B2189279D20967
:1079600025D0284A28481268B2FBF0F0274A424343
:107970001720B2FBF0F206EB4A1090F807C01CF09B
:10798000020F14D111F807C0BCF1000F01D1013A68
:10799000F3D20123CB5504EB4B14A3696FF30D0312
:1079A000A3614FF0FF38404603B0BDE8F08F402D93
:1079B0004FF00002CA5518462A46494628BF4022C1
:1079C000019201F0E1FE04EB4B14019A6061A169A0
:1079D00006EB4A1662F30D01A1610221F171717982
:1079E00041F08001034671719044AD1A9144AFE7B4
:1079F000940F0020050B0020100B00209C0F00208E
:107A0000070B00209000002040420F007011010081
:107A100038B51D460C4B0C4603EB84131146184633
:107A20002A4601F0B1FE03460848E1B200EB4111DD
:107A300028464B618B696FF39B338B618B6965F3D0
:107A40000D038B6138BD00BF100B00209C0F002080
:107A5000114B1B782DE9F04107468846154653B96E
:107A60000E4B1C7854B10E4E0E48348820442C44E2
:107A700001F08AFE34802846BDE8F0811646002ECB
:107A8000F9D0334608EB040200213846FFF7C0FF67
:107A90000444361AF3E700BF900E0020910F002037
:107AA000920F0020910E0020F0B5012A83B00D4600
:107AB00000AF14462CD9D31D03F4FC73ADEB030DBA
:107AC00069462846796002F063FA013040000323DA
:107AD00079688DF800008DF80130013D0222002602
:107AE000A2420CD215F8010F48B1531CDBB29C42E4
:107AF000885403D0CE54931CDAB2F1E722460548ED
:107B0000FFF7A6FF003818BF01200C37BD46F0BDB7
:107B10000020FAE7E40A00202DE9FF41DFF8888021
:107B200000250E46012769460446009588F8007036
:107B3000FFF741FC40F20923ADF80430A0238DF893
:107B40000B3032238DF80C30009B8DF80A5009332E
:107B5000092E8DF80970ADF806308DF8080088F808
:107B6000005008D1324601A92046FFF771FF0120DD
:107B700004B0BDE8F081DFF83480094E0095092299
:107B800001A9204688F800703580FFF761FF69463B
:107B90002046FFF710FC3288024988F80050E3E7DE
:107BA000920F0020910E0020900E0020910F0020D7
:107BB000F0B5CD78022D93B006460F4608D1C9889E
:107BC0002C48FFF7A9FF003818BF012013B0F0BD03
:107BD00001F090F8394601F070F8041E03D0CCBFD4
:107BE00001200020F2E7012D0AD1FA88112A3CD8A1
:107BF0002149D2B262B13046FFF72AFF0120E5E702
:107C0000032D34D1BB782BB9FA88032A2AD91B4912
:107C10000A78F0E7022B05D1BA7919493046FFF707
:107C200043FFD3E7012B02D1BA791649F6E7032BBC
:107C30001DD1154B01A91868FFF7F5F9134B03A9DE
:107C40001868FFF7F0F9124B05A91868FFF7EBF970
:107C5000104B07A91868FFF7E6F9BA798DF82440A8
:107C600001A9DBE70549D2B2C4E70349D0E72046C2
:107C7000ACE700BFE40A0020D1AF0000C4AF0000B1
:107C8000B0AF0000C8AF0000FC6180001060800051
:107C9000146080001860800037B54B780C460B2BC1
:107CA0000FD8DFE803F0061E0E2F0E4448764B4E29
:107CB0006A6D097841B9ADF80410022301AAFFF7F3
:107CC000A7FE012003B030BD0023ADF80430324BD5
:107CD0001B78012B08BF8DF8043001AA0223002174
:107CE000EDE78B78012B4FF0000303D1ADF80430A2
:107CF0002A4BEDE7284A1370294A916963F30D0175
:107D00009161DEE78C78012C06D1244B00211C7098
:107D10008DF804102346D1E7002C3AD11E4B0120E8
:107D200018701F4B9A6964F30D029A61CAE789784B
:107D3000FFF720FCC5E7FFF73BFFC3E7194A012324
:107D4000CDE70B7813F01F0523D1FFF7C3FC154BCC
:107D5000A2781A60124A136893F8291141F00201BF
:107D600083F8291193F8491141F0010183F8491171
:107D7000936965F30D039361A3E70B4A0123AEE713
:107D8000094B8A781A60064B9A696FF30D029A6163
:107D900097E7002096E700BF060B00200E0B00209F
:107DA0009C0F0020940F0020980F00202DE9F8432D
:107DB0004D4B1D780746002D40F087804B4C2368C3
:107DC0009B8B19070ED529462846FFF751F92368E2
:107DD00093F8092142F0100283F80921444A156002
:107DE00008229A8323689A8B52071BD504229A8310
:107DF000404A13784BB11378013BDBB21370137810
:107E00001BB901211A2000F08FFE3B4A13784BB1B9
:107E10001378013BDBB2137013781BB901211920D1
:107E200000F082FE236893F80721D60626D510229B
:107E300083F8072193F80421304942F0400283F887
:107E400004210B7813F0600F384640D1FFF724FF70
:107E5000236800283ED093F8052142F0800283F881
:107E6000052193F80721550608D5402283F80721FC
:107E700093F8082142F0400283F808212368DFF8D4
:107E800080901E8C002506F0FE064FF00108E9B236
:107E9000DEB146FA05F3D80714D5236805F10802C8
:107EA00003EB4213DA79D20702D4DB799B0705D5BD
:107EB00059F82500A0B103681B68984708FA05F334
:107EC00026EA03060135092DE1D1BDE8F883FFF765
:107ED00071FBBDE74FF08242202182F80511C0E717
:107EE0003846FFF781FAE9E7910F00209C0F002048
:107EF000940F0020050B0020040B0020D00C002064
:107F0000E80A00200148FFF751BF00BFE40A002043
:107F1000024B4FF082421A60704700BF9C0F002056
:107F200001207047036840F213421B6A1847D0F8DB
:107F30007821D0F874319A421DBFD0F87831C0183A
:107F4000007D4FF0FF30704710B504460069FEF722
:107F5000EFFD0023C4F87431C4F87831C4F8DC3282
:107F6000C4F8E03210BD01F47061B1F5007F08D0B3
:107F7000B1F5407F07D0B1F5807F14BF0020052008
:107F80007047062070470720704701F00F01012954
:107F900004D0022914BF022001207047002070473E
:107FA0002DE9F3410446334E90F8E402182707FB0D
:107FB0000063884693F90810154600F0DFFD94F839
:107FC000E50207FB006393F9081000F0D7FD94F871
:107FD000E732022B09D194F8F802FF2805D007FBFD
:107FE000006797F9081000F0C9FD94F8E802FF282F
:107FF00017D0012100F054FD94F8E82218235343D0
:10800000F118F2561C4B4968D2011344C4F8EC3203
:108010001A4B134401228A40C4F8F032C4F8F42207
:108020001A600122434611462069FEF7F3FE2946F5
:108030002046FFF798FF2946064605F0F005204642
:10804000FFF7A3FFA5F130025542554103463146E3
:10805000206900950122FEF73DFD206994F8E62293
:1080600094F8E712FEF752FD206902B0BDE8F04136
:10807000FEF76BBD3CAB000018800041148000414E
:1080800010B54FF4AF720446002101F08BFB0023C2
:10809000C4F860312046C4F8643110BDF8B5164606
:1080A0001D4600224FF47A73C0E901230F4B0446AA
:1080B00040F8143B0F46FFF7E3FF04F5BE70FFF7EF
:1080C000DFFF9DF8183084F8E6329DF81C3084F804
:1080D000E732FF23276184F8E46284F8E55284F8EC
:1080E000E83284F8F8322046F8BD00BFECAF00005B
:1080F000D0F86031D0F86401181A48BF00F5AF70AD
:10810000704738B5044600F5BE752846FFF7F0FF06
:108110000028FAD12069BDE83840FEF720BD08B537
:108120001430FFF7E5FF08BDD0F86021D0F86431C6
:108130009A4208DBD0F86031D0F86421C3F5AE7004
:10814000013010447047D0F86431D0F86001181A3B
:108150000138704708B500F5BE70FFF7E5FF08BDB0
:1081600010B504460069FEF717FD28B12069FEF737
:1081700023FD2069FEF715FD2069FEF7FEFC20B304
:108180002069FEF719FDD4F874214FF4AF71013264
:10819000B2FBF1F301FB1323D4F8782193421FBF04
:1081A000D4F8742112191075C4F8743194F8E832B7
:1081B000FF2B0AD004F11400FFF7B6FF0928DEBF39
:1081C000D4F8EC32D4F8F4221A602069FEF7EFFC00
:1081D000F0B104F5BE70FFF78BFF40B3D4F8E02296
:1081E000D4F8DC329A421FD0D4F8E03223444FF462
:1081F000AF7093F87C11D4F8E0320133B3FBF0F2A6
:1082000000FB1233C4F8E0322069C9B2FEF7D8FC93
:108210002069FEF7B7FC70B12069FEF7B7FC206952
:10822000BDE81040FEF7A5BC4FF0FF31ECE7206938
:10823000FEF7D1FCECE710BD2DE9F04104460069E2
:108240000D46FEF7B4FC002846D1294E294F4FF4C5
:10825000AF78D4F8DC32D4F8E0120133B3FBF8F293
:1082600008FB12338B421ED1EFF31083DB0711D4CE
:108270007368C3F30803002BEBD0103B9AB2002BBA
:10828000BBBF02F00F03043BDB199B19ACBF93F893
:1082900000331B7E2069FEF78AFC0028D9D02046D7
:1082A000FFF75EFFD5E7D4F8DC220132B2FBF8F32A
:1082B00008FB1323D4F8E02293421EBFD4F8DC223B
:1082C000121982F87C51206918BFC4F8DC32FEF71D
:1082D0007EFC0120BDE8F08104F5BE70FFF708FFC9
:1082E0000028B2D120692946FEF76AFCF1E700BFF9
:1082F00000ED00E000E100E038B5D0F87821D0F8DA
:1083000074319A4204461DD0D0F8783103444FF4BA
:10831000AF711D7DD0F878310133B3FBF1F201FB71
:108320001233C0F8783194F8E832FF2B08D004F10A
:108330001400FFF7F9FE0A28C4BFD4E9BC321A6062
:10834000284638BD4FF0FF35EDE7FEE7024B1B68CE
:1083500003B11847704700BFA0100020194B1A48FE
:108360001A4A834210B51DD09A421DD014461946B0
:108370008142224611D3834219D1154AD2F888305E
:1083800043F47003C2F88830BFF34F8FBFF36F8F91
:1083900000F0BEF800F098F8FEE7126841F8042BF0
:1083A0000434E5E71946E6E719461A46E3E78A4248
:1083B000E3D0084B084A002101E043F8041B934234
:1083C000FBD3DAE70000002040010020F0B00000FD
:1083D00000ED00E040050020D410002008B500F0BA
:1083E00070F818B9BDE8084000F062B808BDFFF7A2
:1083F000ADBFFFF7ABBFFFF7A9BF0000014B18608F
:10840000704700BFA0100020014B1868704700BFE4
:10841000A4100020124A1349F0B5134D97684B6819
:108420002E68C3F3806390684C68D5F800C0C4F32D
:108430008064A3420FD166450DD187420BD35268A9
:1084400042F22220D21B504333444FF47A725343FA
:1084500003EB1050F0BD664623460746E3E700BF36
:1084600010E000E000ED00E0A410002040B178230F
:108470005843044B596814385A68521A9042FBD832
:10848000704700BF001000E038B5044670B1FFF738
:10849000C1FF054600F014F8FFF7BCFF401BB0F524
:1084A0007A7FF7D3013C05F57A75F5D138BD000028
:1084B000024A13680133136000F0C8BBA410002007
:1084C000704700207047704708B500F01DF901F0B3
:1084D0001FF9FFF7F8FF0120FFF7D6FF0848094C06
:1084E000FEF7A0FF0648FFF72DF8FBF7E3FEFBF7CA
:1084F00093FFFFF7E5FF002CF9D0AFF30080F6E71C
:10850000E40A00200000000001F02EB901F034B9A7
:108510006E4A13889BB213806D4B42F20E029A8210
:10852000DA68D107FCD56B4B1A7842F001021A7059
:108530005A68D207FCD440F20512DA625A689006F3
:10854000FCD44FF4827263491A624A6812F0040242
:10855000FBD1614B1A77614A9A6293F82C2012F092
:108560001002FAD183F820205B4B1A4693F82C10A6
:108570004907FBD4197F41F00201197792F82C309A
:108580009807FBD4536A5362534B1A4693F82C1046
:108590000907FBD4982183F820101369D805FCD56E
:1085A0004C4B4F4A5A635A681106FCD44522C3F813
:1085B0008420494B77225A63DA6B5207FCD44FF47C
:1085C00000629A63022283F83020434B1A6C9007B2
:1085D000FCD51A6CD107F9D53E4A4521C2F888105E
:1085E00063229A643C4B1A6D5207FCD44FF400622C
:1085F000DA64022283F84420374B5A6D9007FCD589
:108600005A6DD107F9D5334B40F206325A625A6897
:108610001207FCD44FF442729A625A68D006FCD416
:10862000304A1A632B4B1A4659684906FCD440F26B
:1086300007311962536813F00403FBD12A49012260
:108640004A7101F58051886963F38200886172B6CE
:10865000264B9A6062B6264AD36843F08073D36093
:10866000244A136843F0010313604FF08013224A39
:108670001B6803F003019184C3F30222C3F3421188
:10868000120142EA0122C3F382010A431B49A1F805
:108690004820C3F38252C3F3C241120142EA0122CD
:1086A000C3F302431343164AA2F84830154B1A6825
:1086B00002F01F01C2F3441343EA8113C2F3822282
:1086C00043EA02334FF08242138570470040004175
:1086D00000140040001C0040001000400000010495
:1086E000060130000603040000080040006000415D
:1086F000F0ED00E0001000E000200042001C00430C
:108700000020004384008000404BF7B51B684FF405
:108710007A72B3FBF2F3013BB3F1807F72D23C4A31
:1087200053603C4BC02183F8231007200021916047
:108730001060802283F82320374B5A6942F470423C
:108740005A619A6942F4FC429A61DA6942F078020D
:10875000DA611A6A6FEA92226FEA82221A6203F5DC
:10876000A0534122C3F82021C3F8242103F1407310
:10877000009303F5806301936C46042502260527C8
:108780004FF4C05C54F8043B1A8865F30A221A803F
:10879000DA8866F3C402DA801A6B1007FCD4DF7241
:1087A0001A6B5206FCD4A3F804C01A6B12F0040230
:1087B000FBD19A72186B10F02000FBD119B300F0B6
:1087C0006BF8164B4422C3F82821D3F82821500611
:1087D000FBD5134A13469168C907FCD4117841F0C0
:1087E000010111709A68D207FCD400225A709A894C
:1087F000022161F30B229A81DA8961F30B22DA817B
:1088000003B0F0BDFEE70121BCE700BF90000020EF
:1088100010E000E000ED00E000080040001C004017
:1088200000240043184B194A19490A2810B518604A
:10883000184B12DDD0886FF3C400D080DA886FF354
:10884000C402DA800C23114A0B60136B1907FCD4A5
:10885000104A136B1B07FCD410BD08280ADDD4880E
:10886000022060F3C404D480DA8860F3C402DA80A2
:108870000A23E8E7D08840F01800D080DA8842F078
:108880001802DA800823DEE798000020001C00436D
:1088900094000020002000432E4B1A46196BC90695
:1088A000FCD42D490B6BDB06FCD401382A4B0A287B
:1088B0004CD8DFE800F0061B212529324B363A4818
:1088C0003E00264BDA696FF31342DA61DA6942F04F
:1088D0000402DA611F4A137A6FF30303137292F8EA
:1088E00008346FF3030382F8083470471B4BDA69CE
:1088F000012161F31342E8E7184B0221DA69F8E736
:10890000164B0321DA69F4E7144BDA69042161F3A9
:108910001342DA61DA690A43DBE7104B0521DA69B1
:10892000E7E70E4B0621DA69E3E70C4B0721DA692A
:10893000DFE7117A042060F3030111721A7A60F301
:1089400003021A727047117A0220F4E7117A0320A9
:10895000F1E700BF001C0043002000430018004066
:10896000062810B5044600F08980052800D80E348A
:108970000121204600F002F9A4F10E03012B32D8A8
:10898000B4F10E023F4B18BF0122995C39B30021AC
:1089900099543D4B99688907FCD4986810F0010000
:1089A000F8D1197860F341011970374B996888073D
:1089B000FCD4996811F00101F8D1043203EB4203B1
:1089C0009A8861F341029A802F4B9A689107FCD4F0
:1089D0009A68D207F9D41A7842F002021A702A4A29
:1089E00093689807FCD4294B182202FB0432D06804
:1089F00010F0020F1A4643D110F080003DD0244BF6
:108A0000196B4907FCD4182000FB04249A88217CA8
:108A100061F304029A801A6B9407FCD41A8842F01E
:108A200002021A801A6B9007FCD41A7D42F00202EF
:108A30001A75012283F82E201A7D42F002021A755F
:108A400093F82E20D107FBD5B3F8400080B21A6B03
:108A500012F00202FBD1198862F3410119801A6BEE
:108A60009207FCD40B4B1A680B4B1B689A4204D03C
:108A70008BBFD31A9B1AD840984010BD142477E7B7
:108A8000064BBDE7A8100020002400433CAB0000CB
:108A9000002000439400002098000020001C0043A8
:108AA000182310B51F4C5843221892F9083001338F
:108AB00013D0526823560120904003290DD8DFE8D7
:108AC00001F002250D19DB0103F1824303F5004398
:108AD0001A44022182F84010586010BDDB0103F1F6
:108AE000824303F500431A44062182F8401058607F
:108AF0009861F2E7DB0103F1824303F500431A4476
:108B0000062182F8401058605861E6E7DB0103F166
:108B1000824303F500431A44422182F840109860D2
:108B2000DBE700BF3CAB0000182330B5114D5843C4
:108B30002B1893F90820013219D05C682B56D80104
:108B400000F1824303F5004301229D68A2401542D3
:108B500009D123440D1E93F8404018BF012565F349
:108B6000820483F84040044B034409B95A6130BD84
:108B70009A61FCE73CAB00000080004138B5182347
:108B8000294D03FB00F2AC1894F90830B3F1FF3F14
:108B900048D00D2907DC002919DA01314FF0FF30E8
:108BA00018BF002038BDA1F10E03DBB2032B04D89F
:108BB0000F2904D10021FFF773FF0020F2E71029ED
:108BC00001D10221F7E71129F7D10121F3E7AD56D1
:108BD0006468164BED0162082B4414F00100C9B221
:108BE0001A4410D092F8300000F00F0040EA011152
:108BF0002344C9B282F8301093F8402042F0410279
:108C000083F84020D9E792F8305005F0F00523446E
:108C1000294382F8301093F8402042F0410283F853
:108C20004020BFE71846BDE73CAB00000080004194
:108C3000014B1860704700BF9C000020024B4FF0B2
:108C4000FF321A60704700BF9C0000200C4A136876
:108C5000591C13D0013B136083B972B6094B0A4A01
:108C60001A60BFF34F8F0949094BCA6802F4E062EA
:108C70001343CB60BFF34F8F00BFFDE7704700BFCA
:108C80009C000020FCFF0220EF6916F000ED00E0E0
:108C90000400FA0570B544680E4600255CB12368EF
:108CA00031465B6820469847002802DBE4680544AB
:108CB000F4E74FF0FF35284670BD38B544680D46DF
:108CC0003CB1236829469B682046984710B9E46860
:108CD000F6E7204638BD38B544680D463CB12368F8
:108CE00029461B682046984710B9E468F6E72046F5
:108CF00038BD0000064A136813F0010306D1054988
:108D000040F202404B600123088013600148704725
:108D1000AC100020B0100020034610B553F8044BEF
:108D2000227842F00102227018464FF4807200212E
:108D300000F038FD0346A278D107FCD4A278920750
:108D4000F9D4636210BD000010B50F4B02681B68B8
:108D5000108D03F01F041F2C08BF052464F38A1034
:108D6000C3F344111085108D1F2908BF1D2161F325
:108D70000400C3F382231085118D072B08BF032342
:108D800063F30E31118510BD840080000B4601464F
:108D9000184600F09DBC000081F0004102E000BFD9
:108DA00083F0004330B54FEA41044FEA430594EAAB
:108DB000050F08BF90EA020F1FBF54EA000C55EAE6
:108DC000020C7FEA645C7FEA655C00F0E2804FEAB7
:108DD0005454D4EB5555B8BF6D420CDD2C4480EA99
:108DE000020281EA030382EA000083EA010180EAC9
:108DF000020281EA0303362D88BF30BD11F0004F17
:108E00004FEA01314FF4801C4CEA113102D040424C
:108E100061EB410113F0004F4FEA03334CEA133387
:108E200002D0524263EB430394EA050F00F0A7809F
:108E3000A4F10104D5F1200E0DDB02FA0EFC22FA9A
:108E400005F2801841F1000103FA0EF2801843FA8E
:108E500005F359410EE0A5F120050EF1200E012A7F
:108E600003FA0EFC28BF4CF0020C43FA05F3C018BD
:108E700051EBE37101F0004507D54FF0000EDCF136
:108E8000000C7EEB00006EEB0101B1F5801F1BD3DF
:108E9000B1F5001F0CD349085FEA30004FEA3C0CE3
:108EA00004F101044FEA445212F5800F80F09A80D9
:108EB000BCF1004F08BF5FEA500C50F1000041EBDD
:108EC000045141EA050130BD5FEA4C0C404141EBE1
:108ED0000101013C28BFB1F5801FE9D291F0000FDC
:108EE00004BF01460020B1FA81F308BF2033A3F18B
:108EF0000B03B3F120020CDA0C3208DD02F1140C82
:108F0000C2F10C0201FA0CF021FA02F10CE002F1BC
:108F10001402D8BFC2F1200C01FA02F120FA0CFCB5
:108F2000DCBF41EA0C019040E41AA2BF01EB0451FE
:108F3000294330BD6FEA04041F3C1CDA0C340EDCFC
:108F400004F11404C4F1200220FA04F001FA02F33F
:108F500040EA030021FA04F345EA030130BDC4F1FD
:108F60000C04C4F1200220FA02F001FA04F340EAF2
:108F70000300294630BD21FA04F0294630BD94F0A3
:108F8000000F83F4801306BF81F480110134013D8A
:108F90004EE77FEA645C18BF7FEA655C29D094EAFB
:108FA000050F08BF90EA020F05D054EA000C04BF79
:108FB0001946104630BD91EA030F1EBF0021002064
:108FC00030BD5FEA545C05D14000494128BF41F003
:108FD000004130BD14F580043CBF01F5801130BD67
:108FE00001F0004545F0FE4141F470014FF00000F2
:108FF00030BD7FEA645C1ABF194610467FEA655CA3
:109000001CBF0B46024650EA013406BF52EA033544
:1090100091EA030F41F4002130BD00BF90F0000F32
:1090200004BF0021704730B54FF4806404F132046E
:109030004FF000054FF0000150E700BF90F0000F27
:1090400004BF0021704730B54FF4806404F132044E
:1090500010F0004548BF40424FF000013EE700BF1E
:1090600042004FEAE2014FEA31014FEA02701FBFAE
:1090700012F07F4393F07F4F81F06051704732F0E0
:109080007F4208BF704793F07F4F04BF41F4002137
:10909000704730B54FF4607401F0004521F0004195
:1090A0001CE700BF50EA010208BF704730B54FF01F
:1090B00000050AE050EA010208BF704730B511F020
:1090C000004502D5404261EB41014FF4806404F158
:1090D00032045FEA915C3FF4D8AE4FF003025FEADE
:1090E000DC0C18BF03325FEADC0C18BF033202EB62
:1090F000DC02C2F1200300FA03FC20FA02F001FABC
:1091000003FE40EA0E0021FA02F11444BDE600BF5E
:1091100070B54FF0FF0C4CF4E06C1CEA11541DBF0D
:109120001CEA135594EA0C0F95EA0C0F00F0DEF8D8
:109130002C4481EA030621EA4C5123EA4C5350EABD
:10914000013518BF52EA033541F4801143F480130E
:1091500038D0A0FB02CE4FF00005E1FB02E506F09F
:109160000042E0FB03E54FF00006E1FB03569CF0F4
:10917000000F18BF4EF0010EA4F1FF04B6F5007FFA
:1091800064F5407404D25FEA4E0E6D4146EB06066C
:1091900042EAC62141EA55514FEAC52040EA5E50F5
:1091A0004FEACE2EB4F1FD0C88BFBCF5E06F1ED89F
:1091B000BEF1004F08BF5FEA500E50F1000041EBD6
:1091C000045170BD06F0004646EA010140EA020083
:1091D00081EA0301B4EB5C04C2BFD4EB0C0541EAA5
:1091E000045170BD41F480114FF0000E013C00F3BA
:1091F000AB8014F1360FDEBF002001F0004170BDDE
:10920000C4F10004203C35DA0C341BDC04F11404F6
:10921000C4F1200500FA05F320FA04F001FA05F282
:1092200040EA020001F0004221F0004110EBD3704F
:1092300021FA04F642EB06015EEA430E08BF20EA7B
:10924000D37070BDC4F10C04C4F1200500FA04F31E
:1092500020FA05F001FA04F240EA020001F00041B0
:1092600010EBD37041F100015EEA430E08BF20EA23
:10927000D37070BDC4F1200500FA05F24EEA020E6B
:1092800020FA04F301FA05F243EA020321FA04F09A
:1092900001F0004121FA04F220EA020000EBD37051
:1092A0005EEA430E08BF20EAD37070BD94F0000F51
:1092B0000FD101F00046400041EB010111F4801F85
:1092C00008BF013CF7D041EA060195F0000F18BF36
:1092D000704703F00046520043EB030313F4801F72
:1092E00008BF013DF7D043EA0603704794EA0C0F2C
:1092F0000CEA135518BF95EA0C0F0CD050EA410642
:1093000018BF52EA4306D1D181EA030101F00041BE
:109310004FF0000070BD50EA410606BF10461946E6
:1093200052EA430619D094EA0C0F02D150EA0136F2
:1093300013D195EA0C0F05D152EA03361CBF104633
:1093400019460AD181EA030101F0004141F0FE41D2
:1093500041F470014FF0000070BD41F0FE4141F456
:10936000780170BD70B54FF0FF0C4CF4E06C1CEA56
:1093700011541DBF1CEA135594EA0C0F95EA0C0F0B
:1093800000F0A7F8A4EB050481EA030E52EA0335C6
:109390004FEA013100F088804FEA03334FF08055E7
:1093A00045EA131343EA12634FEA022245EA111514
:1093B00045EA10654FEA00260EF000419D4208BFC5
:1093C000964244F1FD0404F5407402D25B084FEA72
:1093D0003202B61A65EB03055B084FEA32024FF41E
:1093E00080104FF4002CB6EB020E75EB030E22BF7B
:1093F000B61A754640EA0C005B084FEA3202B6EB3B
:10940000020E75EB030E22BFB61A754640EA5C00E9
:109410005B084FEA3202B6EB020E75EB030E22BF79
:10942000B61A754640EA9C005B084FEA3202B6EB7A
:10943000020E75EB030E22BFB61A754640EADC0039
:1094400055EA060E18D04FEA051545EA16754FEA9B
:1094500006164FEAC30343EA52734FEAC2025FEAB9
:109460001C1CC0D111F4801F0BD141EA00014FF048
:1094700000004FF0004CB6E711F4801F04BF014319
:109480000020B4F1FD0C88BFBCF5E06F3FF6AFAE35
:10949000B5EB030C04BFB6EB020C5FEA500C50F1C5
:1094A000000041EB045170BD0EF0004E4EEA113148
:1094B00014EB5C04C2BFD4EB0C0541EA045170BD4F
:1094C00041F480114FF0000E013C90E645EA060E93
:1094D0008DE60CEA135594EA0C0F08BF95EA0C0FC1
:1094E0003FF43BAF94EA0C0F0AD150EA01347FF409
:1094F00034AF95EA0C0F7FF425AF104619462CE7E0
:1095000095EA0C0F06D152EA03353FF4FDAE104642
:10951000194622E750EA410618BF52EA43067FF493
:10952000C5AE50EA41047FF40DAF52EA43057FF423
:10953000EBAE12E74FF0FF3C06E000BF4FF0010C2E
:1095400002E000BF4FF0010C4DF804CD4FEA410C92
:109550007FEA6C5C4FEA430C18BF7FEA6C5C1BD05F
:1095600001B050EA410C0CBF52EA430C91EA030FE0
:1095700002BF90EA020F0020704710F1000F91EA3D
:10958000030F58BF994208BF90422CBFD8176FEA0B
:10959000E37040F0010070474FEA410C7FEA6C5CD9
:1095A00002D150EA013C07D14FEA430C7FEA6C5CE0
:1095B000D6D152EA033CD3D05DF8040B704700BF0C
:1095C0008446104662468C461946634600E000BF5A
:1095D00001B5FFF7B7FF002848BF10F1000F01BD2C
:1095E0004DF808EDFFF7F4FF0CBF012000205DF8F7
:1095F00008FB00BF4DF808EDFFF7EAFF34BF01207C
:1096000000205DF808FB00BF4DF808EDFFF7E0FF14
:1096100094BF012000205DF808FB00BF4DF808ED65
:10962000FFF7CEFF94BF012000205DF808FB00BFCC
:109630004DF808EDFFF7C4FF34BF012000205DF8AE
:1096400008FB00BF4FEA410212F5001215D211D5F6
:109650006FF47873B3EB625212D94FEAC12343F02F
:10966000004343EA505311F0004F23FA02F018BFB1
:10967000404270474FF00000704750EA013005D17A
:1096800011F0004008BF6FF0004070474FF000003D
:10969000704700BF1FB514461A46094B1B680546A4
:1096A000D8684CB1074B0091CDE9013406492B46EF
:1096B00000F01CF800F034FD044B1C46F3E700BF3B
:1096C000A000002018B0000025B000000AAF000084
:1096D00010B5054C13462CB10A4601460220AFF3E3
:1096E000008010BD2046FCE7000000000EB403B56A
:1096F000014603AB054853F8042B0068019300F0C2
:1097000073F902B05DF804EB03B07047A0000020CD
:1097100070B50D4D0D4C641BA4100026A64209D156
:109720000B4D0C4C01F0C0F8641BA4100026A6429F
:1097300005D170BD55F8043B98470136EEE755F862
:10974000043B98470136F2E70401002004010020A1
:10975000040100203C010020024B0A460146186823
:1097600000F078B8A0000020024B0146186800F015
:10977000B7B800BFA0000020024B0146186800F0F7
:1097800019B800BFA00000200A44914200F1FF3345
:1097900000D1704710B511F8014B03F8014F914209
:1097A000F9D110BD02440346934200D1704703F83B
:1097B000011BF9E737B5002948D051F8043C019066
:1097C000002BA1F10404B8BFE41800F021FF204AE7
:1097D00001981368154633B96360146003B0BDE89F
:1097E000304000F01BBFA3420BD92168621893429E
:1097F00004BF1A685B68636004BF521822602C6063
:10980000ECE71A465B680BB1A342FAD91168551808
:10981000A5420BD1246821445418A3421160DDD124
:109820001C685B68536021441160D7E702D90C23A0
:109830000360D3E7256861198B4204BF19685B6830
:10984000636004BF491921605460C7E703B030BDAD
:10985000B8100020F8B54B1E0B42074602D0002579
:109860002846F8BD082938BF0821042A38BF042239
:10987000D41C0E4624F003040839214400F030F8CB
:109880000028ECD050F8042C031F002AB8BF9B1806
:10989000F51C1D4476423540191D6A1A0BD00B2A5F
:1098A00003EB020618D91868801A98501A603846D7
:1098B000FFF780FF33461A6804F10C019818294419
:1098C0008842CDD92919C81A121A186004312A51B0
:1098D0003846FFF76FFFC3E751429950EBE70000AE
:1098E000F8B5CD1C25F0030508350C2D38BF0C2527
:1098F000002D064601DBA94203D90C23336000206A
:10990000F8BD00F085FE21490A6814469CB9204F35
:109910003B6823B92146304600F02AFB38602946CF
:10992000304600F025FB431C23D10C233360304626
:1099300000F074FEE3E723685B1B17D40B2B03D9FD
:1099400023601C44256004E06368A2420CBF0B60E6
:109950005360304600F062FE04F10B00231D20F03E
:109960000700C21ACCD01B1AA350C9E7224664686C
:10997000CCE7C41C24F00304A042E3D0211A3046F3
:1099800000F0F6FA0130DDD1CFE700BFB8100020BB
:10999000BC1000209368013B002B10B4936008DAE0
:1099A0009469A34201DB0A2903D15DF8044B00F05E
:1099B000F7BA1368581C1060197008465DF8044B1C
:1099C0007047F8B506460F461446D518AC4201D18B
:1099D000002007E014F8011B3A463046FFF7DAFF93
:1099E000431CF3D1F8BD00002DE9F04F0D469DB0AA
:1099F00014469846064618B183690BB900F0B2FCCC
:109A0000894B9D421BD175686B6ED90705D4AB8914
:109A10009A0502D4A86D00F043FDAB891B0701D560
:109A20002B69EBB92946304600F00CFBC0B16B6ED8
:109A3000DC070ED54FF0FF301DB0BDE8F08F7B4B3B
:109A40009D4201D1B568DFE7794B9D4208BFF568BB
:109A5000DAE7AB899805EDD4A86D00F022FDE9E7BF
:109A60000023099320238DF82930CDF80C80302372
:109A7000DFF8C0818DF82A304FF0010923469A465D
:109A800013F8012B0AB1252AF9D1BAEB040B0BD03C
:109A90005B46224629463046FFF793FF013000F02F
:109AA000AA80099A5A4409929AF80030002B00F0D3
:109AB000A28000234FF0FF32CDE905230AF1010A0D
:109AC000049307938DF853301A935446052214F8E3
:109AD000011B584800F04CFD049AD8B9D10644BF88
